:020000040800F2
:10000000E006002089010008651000087D0D000849
:100010000D0F00088F0200084517000800000000BF
:1000200000000000000000000000000005150008AE
:10003000D30200080000000057140008071500084C
:10004000A3010008A3010008A3010008A301000800
:10005000A3010008A3010008A3010008A3010008F0
:10006000A3010008A3010008A3010008A3010008E0
:10007000A3010008A3010008A3010008A3010008D0
:10008000A3010008A3010008A3010008A3010008C0
:10009000A3010008A3010008A3010008A3010008B0
:1000A000A3010008A3010008A3010008A3010008A0
:1000B000A3010008A3010008A3010008A301000890
:1000C000A3010008A3010008A3010008A301000880
:1000D000A3010008A3010008A3010008A301000870
:1000E000A3010008A3010008A301000800F002F822
:1000F00000F03AF80AA090E8000C82448344AAF188
:100100000107DA4501D100F02FF8AFF2090EBAE885
:100110000F0013F0010F18BFFB1A43F0010318473B
:100120004020000060200000103A24BF78C878C149
:10013000FAD8520724BF30C830C144BF04680C60ED
:10014000704700000023002400250026103A28BF35
:1001500078C1FBD8520728BF30C148BF0B60704739
:100160001FB51FBD10B510BD00F058F81146FFF7C0
:10017000F7FF01F035FB00F076F803B4FFF7F2FF6C
:1001800003BC00F07DF8000009488047094800479B
:10019000FEE7FEE7FEE7FEE7FEE7FEE7FEE7FEE737
:1001A000FEE7FEE704480549054A064B7047000094
:1001B00069150008ED000008E0000020E0060020BE
:1001C000E0020020E00200204FF0000200B51346DC
:1001D00094469646203922BFA0E80C50A0E80C5067
:1001E000B1F12001BFF4F7AF090728BFA0E80C5018
:1001F00048BF0CC05DF804EB890028BF40F8042B11
:1002000008BF704748BF20F8022B11F0804F18BF7D
:1002100000F8012B7047704770477047754600F033
:100220002BF8AE4605006946534620F00700854688
:1002300018B020B5FFF7B6FFBDE820404FF000062C
:100240004FF000074FF000084FF0000B21F00701BE
:10025000AC46ACE8C009ACE8C009ACE8C009ACE801
:10026000C0098D46704710B50446AFF300802046A4
:10027000BDE81040FFF781BF0048704780000020B4
:1002800001491820ABBEFEE7260002007047FEE7DA
:1002900070B506280FD80849002401EB800540F20C
:1002A00052312857484301B2204600F073FE641CC7
:1002B000E4B2032CF3D970BDC820000810B50024A7
:1002C0000021204600F066FE641CE4B2032CF7D93E
:1002D00010BD704710B50C4C00221021204600F0D4
:1002E0000CF9002001F0B8F8FF280BD040F0030112
:1002F000002001F029FA20460122BDE8104010211B
:1003000000F0FBB810BD00000008014072B6FEE727
:100310002DE9F84FDFF8B8910024A9F1040B23462A
:100320000F2709F1040AABF1040EC9E00125A5402D
:100330002A40AA427DD1674ED1F804C0ACEB060832
:10034000B44532D014DCBCF1030F3AD009DCBCF167
:10035000000F2AD0BCF1010F1CD0BCF1020F31D12B
:100360001DE0BCF1110F17D0BCF1120F2AD119E01A
:10037000B8F5881F19D006DCB8F5803F15D0B8F560
:10038000801F1FD111E0B8F5001F0ED0B8F5041F73
:1003900018D10AE0CB6815E0CB681B1D12E0CB68D2
:1003A00008330FE0CB680C330CE08B682BB1012BCA
:1003B0004FF0080303D0456104E0042302E0056127
:1003C00000E00023FF2A01D8064601E000F1040600
:1003D0004FEA840501D9A5F12005D6F8008007FA77
:1003E00005FC28EA0C0803FA05F548EA0508C6F8F2
:1003F00000804D68ED0062D5374DAE6946F00106CC
:10040000AE61AD6924F0030605F001050095334D9A
:1004100006EB050CDCF80850A607360F07FA06F8BD
:1004200025EA0805DFF8B880404503D14FF0000801
:1004300017E044E0DFF8AC80404502D14FF00108FE
:100440000FE0DFF8A480404502D14FF0020808E039
:10045000DFF89880404502D14FF0030801E04FF0EB
:10046000040808FA06F848EA0508CCF808804D6840
:10047000D9F80060ED024D4601D5164300E09643E1
:100480002E604D68DAF80060AD02554601D516437E
:1004900000E096432E604D68DBF80060AD035D46DA
:1004A00001D5164300E096432E604D68DEF80060EB
:1004B000ED03754601D5164300E096432E60641C9B
:1004C0000D682A46E5407FF431AFBDE8F88F0000A3
:1004D000080401400000111000100240000001401B
:1004E00000080140000C01400010014000140140D0
:1004F0008068084000D0012070470AB10161704750
:100500000904FBE7014880687047000028000020CC
:1005100002488168027811448160704728000020F9
:10052000074810B5016841F010010160032000F098
:1005300067F80F2000F006F800F024F8002010BD46
:100540000020024070B50D4D04464FF47A712878B2
:10055000B1FBF0F00A490968B1FBF0F000F0AEFA27
:1005600048B9102C07D200222146501E00F028F86E
:1005700000206C6070BD012070BD000028000020CC
:10058000340000200C4808B5816941F00101816107
:10059000816901F001010091C16941F08051C1619F
:1005A000C06900F0805000900448416821F0E0618B
:1005B00041F00071416008BD0010024000000140A0
:1005C000F0B40E4B1B680C46C3F30223C3F10705BE
:1005D000042D00D90425191D072901D2002300E0AC
:1005E000DB1E012606FA05F1491E214099409E4076
:1005F000761E16403143F0BC01F0E2B80CED00E08D
:10060000064900F0070208684FF6FF03184040EA69
:100610000220034A10430860704700000CED00E020
:100620000000FA052DE9F0470F46050061D0434E62
:10063000306800F00700B84209D2306820F00700A7
:1006400038433060306800F00700B84251D1286864
:100650003B4C810712D5400703D5606840F4E06049
:1006600060602878000703D5606840F460506060DF
:100670006068A96820F0F000084360602878C0072F
:1006800028D06868012810D02168022810D0890776
:1006900000292EDA616821F0030101436160FFF750
:1006A00031FF804641F288390DE021688903EFE788
:1006B0008901EDE7FFF726FFA0EB0801494502D9C4
:1006C0000320BDE8F0876068696800F00C00B0EBBB
:1006D000810FEFD1306800F00700B8420BD93068C5
:1006E00020F0070038433060306800F00700B8425F
:1006F00001D00120E5E72878400705D56068E96862
:1007000020F4E060084360602878000706D5606840
:10071000296920F4605040EAC100606000F018F8D8
:100720006168084AC1F30311515CC840064908607A
:1007300006480068FFF706FF0020C2E700200240DD
:100740000010024050210008340000202C0000203E
:100750000E4A51680E4801F00C03042B11D0082BEF
:100760000FD10C48C1F38343C903C05C0AD551685B
:10077000084AC1F34041921E515C054A5043B0FB08
:10078000F1F07047044948437047000000100240F0
:1007900000127A004021000800093D002DE9F84FC1
:1007A000040070D02078C04DC00749D06868C0F3FD
:1007B0008100012807D06868C0F38100022809D1B0
:1007C0006868C00306D52868800339D560680028AA
:1007D000E7D035E06068B0F5803F0BD010B1B0F5E0
:1007E000A02F11D0286820F480302860286820F4D9
:1007F000802002E0286840F480302860606890B172
:10080000FFF780FE06460AE0286840F48020286052
:10081000F0E700BFFFF776FE801B642873D82868D6
:100820008003F7D50CE0FFF76DFE064605E000BF3C
:10083000FFF768FE801B6428F0D828688003F7D48F
:1008400020789A4E80074FF001094FF0000839D503
:10085000686810F00C0F07D06868C0F381000228A8
:1008600009D16868C00306D42868800714D52069B8
:10087000012808D110E02069B0B1C6F80090FFF758
:1008800041FE074605E00AE1FFF73CFEC01B0228D7
:10089000C4D828688007F7D52868616920F0F80077
:1008A00040EAC10028600DE0C6F80080FFF72AFE8C
:1008B000074604E0FFF726FEC01B022823D828685D
:1008C0008007F7D4207800072CD57948A169D9B1E1
:1008D000C0F80090FFF716FE074604E0FFF712FE8F
:1008E000C01B02280FD8686A8007F7D571484FF4FB
:1008F000FA510068B0FBF1F0009000BF0098411E73
:100900000091FAD20EE080E0C0F80080FFF7FAFD17
:10091000074604E0FFF7F6FDC01B022875D8686A99
:100920008007F7D42078400760D5E8690027C00029
:1009300008D4E86940F08050E861E869012700F0D8
:10094000805000905C480168C90513D40168834653
:1009500041F480710160FFF7D5FD824606E000BFDB
:10096000FFF7D0FDA0EB0A0064284ED8DBF80000AA
:10097000C005F5D5E06801280AD008B1052813D0D4
:10098000286A20F001002862286A20F0040002E0B2
:10099000286A40F001002862E06841F2883B98B183
:1009A000FFF7B0FD82460BE0286A40F004002862A1
:1009B000EEE700BFFFF7A6FDA0EB0A0159455AD8A4
:1009C000286A8007F6D50CE0FFF79CFD824605E01B
:1009D000FFF798FDA0EB0A0159454CD8286A80071B
:1009E000F6D41FB1E86920F08050E861E06988B36F
:1009F0006968C1F38101022944D00228C6F86080E9
:100A000004D0FFF77FFD044638E034E0FFF77AFDBD
:100A1000074604E0FFF776FDC01B02282BD82868A4
:100A20008001F7D4206AB0F5803F05D16868A168DD
:100A300020F4003008436860D4E90801084369687D
:100A400021F4741108436860C6F86090FFF75AFDFE
:100A5000044606E025E000BFFFF754FD001B022816
:100A600009D828688001F7D51BE000BFFFF74AFDD1
:100A7000001B022802D90320BDE8F88F28688001F6
:100A8000F4D40EE00128F7D06868226A00F48031BF
:100A9000914204D1616A00F47010884201D00120B3
:100AA000EAE70020E8E700000010024000004242B0
:100AB00080044242340000200070004010B5401E07
:100AC000B0F1807F01D3012010BD4FF0E0246061C0
:100AD0000F21601700F074FE0020A0610720206144
:100AE000002010BD70B590F83C20012A26D00124CA
:100AF00080F83C40022280F83D2003685A689D68D7
:100B000022F070060A6832435A600D4B02689A421E
:100B100008D0B2F1804F05D00A4B9A4202D00A4B5E
:100B20009A4204D1496825F080031943916080F806
:100B30003D40002180F83C10084670BD022070BD89
:100B4000002C0140000400400008004000B585B0C2
:100B5000002100910191029103910068B0F1804F52
:100B600011D10A48816941F00401816180696946B7
:100B700000F0040004900F200090022001900390E8
:100B80000348FFF7C5FB05B000BD000000100240A0
:100B90000008014070B5044690F83C0000260D4660
:100BA00001280FD0012084F83C006AB1042A1DD02E
:100BB000082A2FD00C2A3FD00126002084F83C00C0
:100BC000304670BD022070BD206800F019FD20681D
:100BD000816941F0080181612068816921F0040187
:100BE0008161206881692A69114311E0206800F061
:100BF0002FFD2068816941F400618161206881696D
:100C000021F480618161206881692A6941EA0221B9
:100C10008161D2E7206800F047FD2068C16941F09A
:100C20000801C1612068C16921F00401C161206827
:100C3000C1692A69114311E0206800F061FD206854
:100C4000C16941F40061C1612068C16921F480611A
:100C5000C1612068C1692A6941EA0221C161ACE72A
:100C600010B5040003D094F83D0010B107E0012056
:100C700010BD002084F83C00204600F01FF8022040
:100C800084F83D00211D206800F070FC012084F8EC
:100C9000460084F83E0084F83F0084F8400084F861
:100CA000410084F8420084F8430084F8440084F84A
:100CB000450084F83D00002010BD000008B5006824
:100CC000B0F1804F08D10548C16941F00101C1610F
:100CD000C06900F00100009008BD00000010024053
:100CE00010B50446022249B104290ED0082913D0B8
:100CF00094F84100012816D0012010BD94F83E0060
:100D00000128F9D184F83E200FE094F83F00012833
:100D1000F2D184F83F2008E094F840000128EBD19C
:100D200084F8402001E084F841200122206800F08E
:100D300059FC0F492068884203D1426C42F40042BA
:100D400042642068884208D0B0F1804F05D009493C
:100D5000884202D00849884204D1816801F0070125
:100D6000062903D0016841F001010160002010BD97
:100D7000002C01400004004000080040FEE7000095
:100D80002DE9F04786B00024354800940194029480
:100D90000394816941F010018161816901F01001C2
:100DA0000491816941F020018161816901F0200194
:100DB0000491816941F004018161816901F00401BC
:100DC0000491816941F0080181618069DFF89480B4
:100DD00000F008004FF400450490002229464046E8
:100DE000FFF78BFBDFF880A000224FF43D615046F7
:100DF000FFF783FB01224FF484615046FFF77DFB30
:100E0000DFF868904FF60377002239464846FFF72F
:100E100074FB0095022601250396CDE9015469462D
:100E20004046FFF775FA3811CDE90005CDE90246D5
:100E300069465046FFF76CFA00970396CDE90154D6
:100E400069464846FFF764FA4FF410408DE83100D8
:100E500069465046FFF75CFA06B0BDE8F08700002F
:100E6000001002400010014000080140000C014049
:100E700010B58AB0002407941C2168460894FFF737
:100E8000A3F921484FF08041C0E9001441F61F4109
:100E9000C0E9024104618461FFF7E2FE08B1FFF797
:100EA00035FA079407A918480894FFF71BFE08B104
:100EB000FFF72CFA6020CDE9000402940022694675
:100EC00011480494FFF766FE08B1FFF71FFA0422E9
:100ED00069460D48FFF75EFE08B1FFF717FA0822D2
:100EE00069460948FFF756FE08B1FFF70FFA0C22D2
:100EF00069460548FFF74EFE08B1FFF707FA0248BA
:100F0000FFF724FE0AB010BD38000020FEE7000005
:100F100010B500210948FFF7E3FE04210748FFF759
:100F2000DFFE08210548FFF7DBFE0C210348FFF731
:100F3000D7FEBDE81040FFF7C1B90000380000201F
:100F400010B500EB8002124B00EB800003EB820433
:100F50001A4602EB800000290389406808DD194623
:100F60004FF00102FFF7C9FA218A0022E0680BE086
:100F7000194602DA4FF0000201E04FF00102FFF7DC
:100F8000BCFA218AE0680122BDE81040FFF7B5BA3B
:100F9000E420000870B50446032851D84FF47A7550
:100FA0002C48A94201DD294605E02B4A914201DA8D
:100FB000114600E0F9B130F914205AB1002901DDE1
:100FC000012300E00023002A01DD012600E00026C5
:100FD000B34210D18A4207DA02F11E0212B220F89F
:100FE00014208A4207DC08E007DD1E3A12B220F81E
:100FF00014208A4201DA20F8141030F91460002E0F
:1010000001DD012100E0F1172046FFF799FF134AA7
:10101000D0680146401C002E00DC76424643B6FBF9
:10102000F5F0814200D208460D4904EB840351F8E3
:10103000231031B1042907D00829116807D00864AA
:1010400070BD1168486370BD1168886370BDC86366
:1010500070BD00000000002018FCFFFF38000020D9
:10106000E4200008FEE7000010B50821002000F091
:101070006BFB3F21012000F067FB0121022000F003
:1010800063FB0321084600F05FFB0321042000F00E
:101090005BFB0221052000F057FB0E21062000F02B
:1010A00053FB0421112000F04FFB052213490A20B5
:1010B00000F064FB124C002220212046FFF71DFAAD
:1010C000E12000F0F5F9012220212046FFF715FA72
:1010D000002220212046FFF710FAE22000F0E8F974
:1010E000012220212046FFF708FA7021072000F096
:1010F0002BFBBDE81040FFF7EDB8000039210008D8
:10110000000801402DE9F04100F0BEF9044600203E
:1011100000F0A2F9800704D4FFF7A6FF0320BDE882
:10112000F081C4F3011003282DD060062FD51A4F8B
:10113000184E0425002220213846FFF7DEF96120F1
:1011400000F0B6F90024FF2000F0B2F93055641C1D
:10115000E4B2AC42F7D3012220213846FFF7CDF9A3
:101160004021072000F0F0FA002220213846FFF746
:10117000C4F9E22000F09CF9012220213846FFF753
:10118000BCF90120CBE7FFF76FFF0220C7E7002083
:10119000C5E700000C0000200008014070B50024E5
:1011A0000021204600F0DCF80025002000F042F984
:1011B0006D1CEDB2802DF8D3641CE4B2082CEFD383
:1011C00070BD000010B5FFF7DBFD064C01221102D7
:1011D0002046FFF792F920460122BDE81040510257
:1011E000FFF78BB9000C01402DE9F047164E0024A3
:1011F00007464FF080084FF40079B51528FA04F03F
:10120000384201D0012200E0002249463046FFF773
:1012100074F9012229463046FFF76FF9002229466A
:101220003046FFF76AF9641CE4B2082CE6D30122C9
:1012300029463046FFF761F929463046BDE8F047B8
:101240000022FFF75AB90000000C014070B50122DE
:101250000B4D540221462846FFF74FF90122160292
:1012600031462846FFF749F9002221462846FFF774
:1012700044F931462846BDE870400022FFF73DB9E9
:10128000000C014070B50A4D4FF400740022214655
:101290002846FFF732F9012211022846FFF72DF9FF
:1012A00021462846BDE870400122FFF726B900001C
:1012B000000C014010B500204FF47A720021491C47
:1012C0009142FCD3401C9042F8D3FFF77BFFAE2045
:1012D00000F09FF8D52000F09CF8802000F099F8ED
:1012E000A82000F096F83F2000F093F8D32000F0FB
:1012F00090F8002000F08DF8402000F08AF8A1203E
:1013000000F087F8C82000F084F8DA2000F081F8B7
:10131000122000F07EF8812000F07BF8CF2000F052
:1013200078F8D92000F075F8F12000F072F8DB2091
:1013300000F06FF8302000F06CF8A42000F069F89D
:10134000A62000F066F88D2000F063F8142000F06D
:1013500060F8AF2000F05DF8BDE81040FFF71EBF59
:1013600010B50C4640F0B00000F053F8102040EAF1
:10137000141000F04EF804F00F00BDE8104000F02B
:1013800048B800002DE9F0410746CE004000083E75
:10139000801E15464FF0FF38F1B2C0B2FFF7E0FFF4
:1013A0001148002400EB05152819A0F5805090F88D
:1013B000000E00F03FF8641CE4B2082CF4D308EBF4
:1013C0004700F1B2C0B2FFF7CBFF00242819A0F507
:1013D000805090F8080E00F02DF8641CE4B2082C40
:1013E000F4D3BDE8F0810000D81A00082DE9F041DF
:1013F00015460E460746002406E03019C1B23846AD
:10140000FFF7C0FF641CE4B22A5D002AF5D1BDE8F5
:10141000F08110B50446FFF719FF7820FFF7E4FECE
:101420000020FFF7E1FE2046FFF7DEFEBDE810409A
:10143000FFF728BF10B50446FFF708FF7820FFF735
:10144000D3FE4020FFF7D0FE2046FFF7CDFEBDE8DB
:101450001040FFF717BF704770B50A4D04460022D1
:1014600020212846FFF749F8204600F021F8FF2008
:1014700000F01EF80446012220212846FFF73DF81F
:10148000204670BD0008014070B5084D00222021A3
:101490002846FFF732F8FF2000F00AF80446012240
:1014A00020212846FFF729F8204670BD000801409A
:1014B0002DE9F041124E044600254FF48057E20911
:1014C00080213046FFF719F86006040E0122402102
:1014D0003046FFF712F839463046FFF709F8012881
:1014E00001D144F00104002240213046FFF705F805
:1014F0006D1CEDB2082DE2D32046BDE8F08100005E
:10150000000801407047FFF703B830B58FB02821BD
:101510006846FEF759FE14210AA8FEF755FE012180
:101520000804CDE900100024029402250491CDE9BD
:1015300007504FF4E01009906846FFF72FF908B103
:1015400072B6FEE70F20CDE90A054FF48060CDE9C1
:101550000C4002210AA80E94FFF764F8002801D07D
:1015600072B6FEE70FB030BD70470000F0B50268FC
:10157000194B1A4C1A4D4FF08047984205D0B8428B
:1015800003D0A04201D0A84203D122F070064A68DD
:101590003243984205D0B84203D0A04201D0A842BD
:1015A00003D122F44074CA6822434C6922F08002BD
:1015B000224302608A68C2620A688262984201D14C
:1015C00009690163012141610169C90703D001690A
:1015D00021F001010161F0BD002C01400004004038
:1015E0000008004010B501F01F030121046A994072
:1015F0008C430462016A9A401143016210BD0000ED
:1016000030B5036A026A22F001020262426884690C
:1016100024F073050C682C4323F002058B682B43E0
:101620000A4DA8420BD123F00805CB6822F4407282
:101630002B434D6923F0040315438A692A43426012
:10164000846149684163036230BD0000002C0140A1
:1016500030B5026A036A23F01003036243688469A9
:101660000D6824F4E64444EA05248D6822F0200243
:1016700042EA05120B4DA8420ED1CD6822F080023D
:1016800042EA05124D6923F4406343EA85038D69FC
:1016900022F0400243EA8503436084614968816324
:1016A000026230BD002C014030B5036A026A22F4A8
:1016B000807202624268C46923F4007324F07305E7
:1016C0000C682C438D6843EA05230C4DA8420ED1CB
:1016D000CD6823F4006343EA05234D6922F44052A8
:1016E00042EA05128D6923F4806342EA05124260E2
:1016F000C4614968C163036230BD0000002C014031
:1017000030B5046A026A22F4805202624268C369F8
:101710000D6823F4E64343EA05238D6824F400545E
:1017200044EA0534064DA84204D14D6922F48042B2
:1017300042EA85124260C36149680164046230BDB7
:10174000002C0140FEE7000070B50B4D0E4604462C
:10175000002220212846FEF7D0FE44F02000FFF7AB
:10176000A7FE3046FFF7A4FE2846BDE870400122E0
:101770002021FEF7C2BE0000000801402DE9F04123
:101780000E4F15460E460446002220213846FEF72D
:10179000B4FE44F02000FFF78BFE002404E0305D2F
:1017A000FFF786FE641CE4B2AC42F8D33846BDE8CD
:1017B000F04101222021FEF7A0BE000000080140F8
:1017C0000907090E002804DB00F1E02080F800146E
:1017D000704700F00F0000F1E02080F8141D704702
:1017E000FEF79EFEFFF791FEFFF7CAFAFFF740FBF8
:1017F000FFF760FDFFF78CFBFFF736FCFFF7CEFC31
:10180000012187A20846FFF7F1FD89A201210220EC
:10181000FFF7ECFD8AA201210320FFF7E7FDDFF8C7
:1018200030A24FF0010B4FF4FA764FF000084FF062
:10183000FF09884CFEF766FEE168401A1028F9D3CC
:10184000FEF760FEE060FEF75DFE0546FFF75AFC1E
:10185000012830D19AF800209AF801105046A52AA4
:1018600029D1837801F1A5021A449AF80300D2B273
:10187000824220D1256184F806B020895A460A2880
:1018800001D2401C2081072904D084F807802078E9
:10189000B0B159E0E07970B9E271207870B1002000
:1018A0002070FEF70BFDC4F8148084F8018084F8E2
:1018B000039084F80490207818B145E00120EFE708
:1018C00061702069281AB0420CD9208980B347463C
:1018D000A4F80880FEF7F2FC6761677084F8049052
:1018E000207888BB20890A2844D36069A0B1281ACF
:1018F0000DD4FEF7E3FCC4F8148084F8018000BF27
:10190000FFF700FC0028FBD184F804901AE0A078CF
:10191000052815D0062013E06078072812D2DFE8EA
:1019200000F004080A0C0E182000FEF7C7FC09E0BE
:1019300020E0012004E0022002E0032000E0042077
:10194000FEF7A6FC2078A8B100206169A1B1A778B4
:1019500018E00520FEF79CFC05F6C4106061052028
:1019600006E00620FEF794FC05F6C4106061062030
:10197000A070C9E70120E8E721890A2901D20027E0
:1019800000E06778A17929B12169691AB14201D8CB
:10199000012500E000256189491C89B26181202967
:1019A00007D3A4F80A8084F8039084F8049084F89C
:1019B0000590E178884208D0E07008B126A200E0E6
:1019C00017A201210846FFF711FD2079874217D0A1
:1019D0002771072F1CD2DFE807F01B0406080A0C4A
:1019E0000E0021A208E024A206E027A204E02AA219
:1019F00002E02DA200E030A201210220FFF7F6FC58
:101A0000607985423FF416AF65711DB12EA202E0E8
:101A100007A2F1E70AA201210320FFF7E7FC09E78B
:101A20005359533A204C4F434B454420200000006B
:101A30004143543A2053544F5020202020000000AE
:101A40004C494E4B3A204C4F53542020000000008C
:101A50000C000020100000205359533A20554E4CE2
:101A60004F434B45440000004143543A2046524FF7
:101A70004E542020200000004143543A204241436C
:101A80004B202020200000004143543A204C454682
:101A900054202020200000004143543A205249475E
:101AA00048542020200000004143543A20524F5413
:101AB000415445204C0000004143543A20524F54B9
:101AC00041544520520000004C494E4B3A204F4BA8
:101AD0002020202000000000000000000000000086
:101AE0000000000000000000000000F800000000FE
:101AF000000000333000000000100C06100C06003F
:101B0000000000000000000040C07840C0784000A5
:101B1000043F04043F040400007088FC0830000007
:101B2000001820FF211E0000F008F000E01800005F
:101B300000211C031E211E0000F008887000000018
:101B40001E2123241927211010160E00000000006A
:101B50000000000000000000000000E01804020087
:101B6000000000071820400000020418E0000000F8
:101B70000040201807000000404080F080404000F6
:101B80000202010F01020200000000F0000000004C
:101B90000101011F01010100000000000000000020
:101BA00080B0700000000000000000000000000095
:101BB000000101010101010100000000000000001E
:101BC00000303000000000000000000080601804B9
:101BD000006018060100000000E010080810E00096
:101BE000000F102020100F00001010F8000000005F
:101BF0000020203F202000000070080808887000A6
:101C00000030282422213000003008888848300025
:101C10000018202020110E000000C02010F8000045
:101C200000070424243F240000F8088888080800DE
:101C30000019212020110E0000E0108888180000F3
:101C4000000F112020110E0000380808C8380800C5
:101C50000000003F00000000007088080888700045
:101C6000001C222121221C0000E010080810E000C6
:101C70000000312222110F00000000C0C00000004F
:101C80000000003030000000000000800000000074
:101C9000000080600000000000008040201008006C
:101CA0000001020408102000404040404040400035
:101CB0000404040404040400000810204080000010
:101CC0000020100804020100007048080808F00015
:101CD0000000003036010000C030C828E810E000E5
:101CE0000718272423140B000000C038E000000070
:101CF000203C23020227382008F8888888700000DA
:101D0000203F202020110E00C030080808083800AD
:101D1000071820202010080008F808080810E00024
:101D2000203F202020100F0008F88888E8081000C5
:101D3000203F20202320180008F88888E808100099
:101D4000203F200003000000C030080808380000D1
:101D500007182020221E020008F808000008F808D2
:101D6000203F210101213F20000808F80808000059
:101D70000020203F2020000000000808F80808008C
:101D8000C08080807F00000008F888C02818080004
:101D9000203F20012638200008F80800000000003D
:101DA000203F20202020300008F8F800F8F8080034
:101DB000203F003F003F200008F830C00008F8082E
:101DC000203F200007183F00E01008080810E0003E
:101DD0000F10202020100F0008F808080808F00055
:101DE000203F210101010000E01008080810E00078
:101DF0000F18242438504F0008F88888888870000D
:101E0000203F2000030C30200070880808083800AC
:101E10000038202121221C00180808F808081800A2
:101E20000000203F2000000008F808000008F80823
:101E3000001F202020201F000878880000C83808D4
:101E4000000007380E010000F80800F80008F8004C
:101E5000033C0700073C03000818688080681808E6
:101E600020302C03032C30200838C800C838080064
:101E70000000203F2000000010080808C8380800B3
:101E80002038262120201800000000FE0202020057
:101E90000000007F40404000000C30C00000000007
:101EA000000000010638C00000020202FE0000002F
:101EB000004040407F0000000000040202020400D5
:101EC0000000000000000000000000000000000012
:101ED00080808080808080800002020400000000FA
:101EE00000000000000000000000808080800000F2
:101EF0000019242222223F2008F8008080000000E0
:101F0000003F112020110E000000008080800000A2
:101F1000000E112020201100000000808088F800B1
:101F2000000E112020103F200000808080800000E3
:101F3000001F222222221300008080F08888881847
:101F40000020203F20200000000080808080800052
:101F5000006B94949493600008F8008080800000E7
:101F6000203F210000203F200080989800000000C2
:101F70000020203F202000000000008098980000F2
:101F800000C08080807F000008F800008080800012
:101F9000203F24022D302000000808F80000000037
:101FA0000020203F202000008080808080808000F2
:101FB000203F20003F20003F808000808080000084
:101FC000203F210000203F20000080808080000012
:101FD000001F202020201F00808000808000000043
:101FE00080FFA12020110E00000000808080800072
:101FF000000E112020A0FF80808080008080800063
:1020000020203F212000010000008080808080008F
:102010000033242424241900008080E08080000004
:102020000000001F20200000808000000080800051
:10203000001F202020103F208080800000808080B2
:1020400000010E3008060100808000800080808042
:102050000F300C030C300F00008080008080800067
:102060000020312E0E312000808080000080808092
:1020700080818E7018060100008080808080800042
:102080000021302C2221300000000000807C020260
:1020900000000000003F404000000000FF00000082
:1020A00000000000FF0000000002027C8000000031
:1020B0000040403F0000000000060101020204044D
:1020C000000000000000000000000000FFFFFFFF14
:1020D0000101010101FFFF01FF0101FF0101FFFFFC
:1020E000FFFF010100000000000C014001000000A2
:1020F000000C01400200000004000000000C014040
:1021000000040000000C014000080000080000006E
:10211000000C014000400000000C01400080000065
:102120000C000000000C01400020000000100140E5
:10213000008000001122334455112233445501021E
:1021400002030405060708090A0B0C0D0E0F1010F8
:102150000000000000000000010203040607080957
:10216000802100080000002038000000280100083D
:10217000B821000838000020A8060000440100082B
:10218000000000000000000000000000000000004F
:10219000010000FFFFFF0000000000000000000041
:1021A000000000000000000001000000100000001E
:0821B0000000000000127A009B
:04000005080000ED02
:00000001FF
