:020000040800F2
:10000000F0060020890100081F1700086110000891
:100010001D1700088F0200088F1C00080000000058
:10002000000000000000000000000000291C000883
:1000300091020008000000006F1B00082B1C000844
:10004000A3010008A3010008A3010008A301000800
:10005000A3010008A3010008A3010008A3010008F0
:10006000A3010008A3010008A3010008A3010008E0
:10007000A3010008A3010008A3010008A3010008D0
:10008000A3010008A3010008A3010008A3010008C0
:10009000A3010008A3010008A3010008A3010008B0
:1000A000A3010008A3010008A3010008A3010008A0
:1000B000A3010008A3010008A3010008A301000890
:1000C000A3010008A3010008A3010008A301000880
:1000D000A3010008A3010008A3010008A301000870
:1000E000A3010008A3010008A301000800F002F822
:1000F00000F03AF80AA090E8000C82448344AAF188
:100100000107DA4501D100F02FF8AFF2090EBAE885
:100110000F0013F0010F18BFFB1A43F0010318473B
:10012000442E0000642E0000103A24BF78C878C125
:10013000FAD8520724BF30C830C144BF04680C60ED
:10014000704700000023002400250026103A28BF35
:1001500078C1FBD8520728BF30C148BF0B60704739
:100160001FB51FBD10B510BD00F05CF81146FFF7BC
:10017000F7FF01F025FF00F07AF803B4FFF7F2FF74
:1001800003BC00F07DF8000009488047094800479B
:10019000FEE7FEE7FEE7FEE7FEE7FEE7FEE7FEE737
:1001A000FEE7FEE704480549054A064B7047000094
:1001B0008D1C0008ED000008F0000020F006002073
:1001C000F0020020F00200204FF0000200B51346BC
:1001D00094469646203922BFA0E80C50A0E80C5067
:1001E000B1F12001BFF4F7AF090728BFA0E80C5018
:1001F00048BF0CC05DF804EB890028BF40F8042B11
:1002000008BF704748BF20F8022B11F0804F18BF7D
:1002100000F8012B704770477047704700487047DF
:100220008C0000207546FFF7F9FFAE4605006946D1
:10023000534620F00700854618B020B5FFF7B2FFFF
:10024000BDE820404FF000064FF000074FF00008D7
:100250004FF0000B21F00701AC46ACE8C009ACE858
:10026000C009ACE8C009ACE8C0098D46704710B5BC
:100270000446AFF300802046BDE81040FFF77DBF85
:1002800001491820ABBEFEE7260002007047FEE7DA
:100290007047000070B50D4D4FF480740022214668
:1002A000284600F01EF9002001F062FCFF280BD068
:1002B00040F00301002001F0EBFC21462846BDE898
:1002C0007040012200F00DB970BD0000000801402F
:1002D00072B6FEE770B5044600F008F90546601CEA
:1002E00002D004480078044400F000F9401BA0420A
:1002F000FAD370BD280000202DE9F84FDFF8B8913F
:100300000024A9F1040B23460F2709F1040AABF1DD
:10031000040EC9E00125A5402A40AA427DD1674EBE
:10032000D1F804C0ACEB0608B44532D014DCBCF103
:10033000030F3AD009DCBCF1000F2AD0BCF1010F49
:100340001CD0BCF1020F31D11DE0BCF1110F17D050
:10035000BCF1120F2AD119E0B8F5881F19D006DCBC
:10036000B8F5803F15D0B8F5801F1FD111E0B8F562
:10037000001F0ED0B8F5041F18D10AE0CB6815E0B5
:10038000CB681B1D12E0CB6808330FE0CB680C3341
:100390000CE08B682BB1012B4FF0080303D04561B3
:1003A00004E0042302E0056100E00023FF2A01D8F5
:1003B000064601E000F104064FEA840501D9A5F1E3
:1003C0002005D6F8008007FA05FC28EA0C0803FA95
:1003D00005F548EA0508C6F800804D68ED0062D5CD
:1003E000374DAE6946F00106AE61AD6924F00306F3
:1003F00005F001050095334D06EB050CDCF80850BF
:10040000A607360F07FA06F825EA0805DFF8B880D0
:10041000404503D14FF0000817E044E0DFF8AC801E
:10042000404502D14FF001080FE0DFF8A4804045BD
:1004300002D14FF0020808E0DFF89880404502D171
:100440004FF0030801E04FF0040808FA06F848EA04
:100450000508CCF808804D68D9F80060ED024D46DB
:1004600001D5164300E096432E604D68DAF800602F
:10047000AD02554601D5164300E096432E604D6807
:10048000DBF80060AD035D4601D5164300E09643FE
:100490002E604D68DEF80060ED03754601D5164309
:1004A00000E096432E60641C0D682A46E5407FF408
:1004B00031AFBDE8F88F00000804014000001110C2
:1004C000001002400000014000080140000C014003
:1004D00000100140001401408068084000D0012055
:1004E00070470AB1016170470904FBE70148806861
:1004F000704700002800002070B5040025D094F853
:100500003D00002520B984F83C50204600F07EFADA
:10051000242084F83D002068016821F00101016079
:100520002068016841F4004101602068016821F4FD
:100530000041016000F0BAFB4D4A6168914201D868
:100540004C4900E04C49884201D2012070BD4B4922
:100550002368B0FBF1F15E6826F03F060E435E6053
:100560006368934206D94FF4967359434FF47A73F4
:10057000B1FBF3F12368491C1E6A26F03F063143A4
:1005800019626168914210D84900401EB0FBF1F237
:10059000521CC2F30B02042A01D2042022E0B0FB59
:1005A000F1F0401CC0F30B001CE0A268F2B301EBB9
:1005B000C10303EB0116431EB3FBF6F35B1C43F4CC
:1005C00080431B0549D092B301EBC10202EB01113C
:1005D000401EB0FBF1F0401CC0F30B0040F4804023
:1005E00040F400402168CA694CF6FF739A431043F7
:1005F000C861D4E9071001432068026822F0C002F4
:1006000011430160D4E9030101432068826848F284
:10061000FF339A4311438160D4E9050108432168FF
:10062000CA6822F0FF021043C86001E00EE016E045
:100630002068016841F0010101602564202084F8F0
:100640003D00256384F83E50002070BD01EB41065B
:10065000431EB3FBF6F35B1CB3E70120C2E701EBDB
:100660004101401EB0FBF1F0401CC0F30B00B7E7A6
:10067000A086010080841E0000093D0040420F005A
:100680002DE9FF4F83B00025DDE910799A469346A6
:100690000446DDF848800095FFF728FF064694F8E9
:1006A0003D0020287CD1192301228849204600964C
:1006B00000F0ECFD0028F5D194F83C0001286FD043
:1006C000012084F83C0020680168C90703D1016853
:1006D00041F0010101602068016821F400610160BE
:1006E000222084F83D00402084F83E0025646762A3
:1006F000A4F82A90608D20857548E062CDE90086D7
:1007000053465A462046049900F0C2FC00287CD18A
:10071000208DDFF8C091202768B1012814D002286D
:10072000206801681ED041F4806101602068416941
:1007300080690090BCE0206841698169009101688E
:1007400041F400710160B3E02068016821F4806128
:10075000016072B62068416981690091016841F4C5
:1007600000710AE041F40061016072B620684169DD
:1007700081690091016821F48061016062B697E0AF
:10078000032865D801280CD0022843464FF0000208
:100790004946204600960BD000F078FDA8BB0CE03F
:1007A00091E032464146204600F016FE68BB72E0FA
:1007B00000F06CFD48BB72B633E02068016821F49C
:1007C0008061016072B620680069616A0870606AC1
:1007D000401C6062208D401E2085608D401E60851B
:1007E0003D4846F2A8110068B0FBF1F0C0EBC00034
:1007F00000EB80000090401E009007D02068406908
:10080000C04340070DD50098F5E727E044F8305F76
:100810006773A573206940F02000206162B62573DC
:100820001CE02068016841F40071016020680069E3
:10083000616A0870606A401C6062218D491E2185D2
:10084000618D491E618562B621680969017026E0E3
:1008500032464146204600F0BFFD18B1012007B0E6
:10086000BDE8F08F20680069616A0870606A401C0A
:100870006062208D401E81B22185608D401E6085A2
:1008800020684269D243520712D4032903D1016878
:1008900021F48061016020680069616A0870606A03
:1008A000401C6062208D401E2085608D401E60854A
:1008B000208D00287FF464AF84F83D7084F83E50AA
:1008C00084F83C50CBE70220C9E70000020010008A
:1008D0000000FFFF04000100340000202DE9FF4F5D
:1008E00083B09A46DDE9119793460446DDF84080CF
:1008F000FFF7FCFD054694F83D0020287FD1192321
:10090000012240492046009500F0C0FC002876D125
:1009100094F83C00012872D0012084F83C00206843
:100920000168C90703D1016841F001010160206835
:10093000016821F400610160212084F83D0040201D
:1009400084F83E0000262664C4F82480A4F82A9087
:10095000608D20852C48E062CDE9007553465A46EB
:100960002046049900F012FC70B930E02A4639465E
:10097000204600F069FD58B1206C042804D120689D
:10098000016841F400710160012007B0BDE8F08FFB
:10099000606A216800780861606A401C6062218D8D
:1009A000491E89B22185628D521E62852268536973
:1009B000DB435B070BD469B100781061606A401CAF
:1009C0006062208D401E2085608D401E6085208DD8
:1009D0000028CBD12A463946204600F02BFC0028BF
:1009E000CAD154F83D0B016841F400710160202028
:1009F00004F81E09E67766770020C6E7FFE70220C5
:100A0000C3E70000020010000000FFFF10B586B031
:100A100000210091019102910391006810498842E0
:100A20001BD1104CA06940F00800A061A069694684
:100A300000F0080004904FF44060009012200190F4
:100A4000032003900848FFF757FCE06940F480005A
:100A5000E061E06900F48000049006B010BD000081
:100A60000058004000100240000C0140024881681C
:100A7000027811448160704728000020074810B5B3
:100A8000016841F010010160032000F067F80F20B9
:100A900000F006F800F024F8002010BD002002400D
:100AA00070B50D4D04464FF47A712878B1FBF0F023
:100AB0000A490968B1FBF0F000F0BEFA48B9102C01
:100AC00007D200222146501E00F028F800206C605A
:100AD00070BD012070BD00002800002034000020FF
:100AE0000C4808B5816941F001018161816901F01B
:100AF00001010091C16941F08051C161C06900F0FC
:100B0000805000900448416821F0E06141F000719C
:100B1000416008BD0010024000000140F0B40E4BDF
:100B20001B680C46C3F30223C3F10705042D00D94B
:100B30000425191D072901D2002300E0DB1E012630
:100B400006FA05F1491E214099409E40761E164046
:100B50003143F0BC01F0EFB80CED00E0064900F0C5
:100B6000070208684FF6FF03184040EA0220034AD4
:100B700010430860704700000CED00E00000FA052B
:100B80002DE9F0470F46050061D0434E306800F074
:100B90000700B84209D2306820F0070038433060BF
:100BA000306800F00700B84251D128683B4C8107FB
:100BB00012D5400703D5606840F4E0606060287893
:100BC000000703D5606840F4605060606068A96801
:100BD00020F0F000084360602878C00728D06868DB
:100BE000012810D02168022810D0890700292EDAA8
:100BF000616821F0030101436160FFF777FC8046E3
:100C000041F288390DE021688903EFE78901EDE7BA
:100C1000FFF76CFCA0EB0801494502D90320BDE8B1
:100C2000F0876068696800F00C00B0EB810FEFD1CD
:100C3000306800F00700B8420BD9306820F0070098
:100C400038433060306800F00700B84201D001201E
:100C5000E5E72878400705D56068E96820F4E0609A
:100C6000084360602878000706D56068296920F489
:100C7000605040EAC100606000F028F86168084AEE
:100C8000C1F30311515CC84006490860064800687A
:100C9000FFF706FF0020C2E70020024000100240DC
:100CA0004A2F0008340000202C0000200448054989
:100CB00000684968044AC1F30221515CC84070478A
:100CC00034000020001002405A2F00080E4A5168DC
:100CD0000E4801F00C03042B11D0082B0FD10C4847
:100CE000C1F38343C903C05C0AD55168084AC1F304
:100CF0004041921E515C054A5043B0FBF1F07047F1
:100D000004494843704700000010024000127A0076
:100D10003A2F000800093D002DE9F84F040070D07B
:100D20002078C04DC00749D06868C0F38100012811
:100D300007D06868C0F38100022809D16868C00341
:100D400006D52868800339D560680028E7D035E0EB
:100D50006068B0F5803F0BD010B1B0F5A02F11D076
:100D6000286820F480302860286820F4802002E081
:100D7000286840F480302860606890B1FFF7B6FBC7
:100D800006460AE0286840F480202860F0E700BFAB
:100D9000FFF7ACFB801B642873D828688003F7D565
:100DA0000CE0FFF7A3FB064605E000BFFFF79EFB44
:100DB000801B6428F0D828688003F7D420789A4EE6
:100DC00080074FF001094FF0000839D5686810F02E
:100DD0000C0F07D06868C0F38100022809D1686849
:100DE000C00306D42868800714D52069012808D1DB
:100DF00010E02069B0B1C6F80090FFF777FB074616
:100E000005E00AE1FFF772FBC01B0228C4D828687E
:100E10008007F7D52868616920F0F80040EAC10032
:100E200028600DE0C6F80080FFF760FB074604E08D
:100E3000FFF75CFBC01B022823D828688007F7D483
:100E4000207800072CD57948A169D9B1C0F8009065
:100E5000FFF74CFB074604E0FFF748FBC01B0228E6
:100E60000FD8686A8007F7D571484FF4FA510068C7
:100E7000B0FBF1F0009000BF0098411E0091FAD243
:100E80000EE080E0C0F80080FFF730FB074604E08A
:100E9000FFF72CFBC01B022875D8686A8007F7D4BF
:100EA0002078400760D5E8690027C00008D4E869C9
:100EB00040F08050E861E869012700F08050009020
:100EC0005C480168C90513D40168834641F4807108
:100ED0000160FFF70BFB824606E000BFFFF706FB51
:100EE000A0EB0A0064284ED8DBF80000C005F5D559
:100EF000E06801280AD008B1052813D0286A20F03C
:100F000001002862286A20F0040002E0286A40F00C
:100F100001002862E06841F2883B98B1FFF7E6FAE9
:100F200082460BE0286A40F004002862EEE700BF2A
:100F3000FFF7DCFAA0EB0A0159455AD8286A800766
:100F4000F6D50CE0FFF7D2FA824605E0FFF7CEFABD
:100F5000A0EB0A0159454CD8286A8007F6D41FB186
:100F6000E86920F08050E861E06988B36968C1F3FE
:100F70008101022944D00228C6F8608004D0FFF71E
:100F8000B5FA044638E034E0FFF7B0FA074604E06B
:100F9000FFF7ACFAC01B02282BD828688001F7D4D1
:100FA000206AB0F5803F05D16868A16820F4003060
:100FB00008436860D4E908010843696821F47411A2
:100FC00008436860C6F86090FFF790FA044606E0B0
:100FD00025E000BFFFF78AFA001B022809D828681D
:100FE0008001F7D51BE000BFFFF780FA001B022845
:100FF00002D90320BDE8F88F28688001F4D40EE000
:101000000128F7D06868226A00F48031914204D147
:10101000616A00F47010884201D00120EAE70020E4
:10102000E8E7000000100240000042428004424213
:10103000340000200070004010B5401EB0F1807FE9
:1010400001D3012010BD4FF0E02460610F21601733
:1010500000F071FE0020A06107202061002010BD7B
:10106000FEE701684A69D24352050FD46FF48062EB
:101070004A61002140F8301F2022427381730269C7
:1010800042F00402026101730120704700207047A2
:101090002DE9F84F0446006889460B9D0168984683
:1010A000174641F4806101602068016841F4807155
:1010B000016000954FF0011B0022594620460A9B13
:1010C00000F0E4F84FF4007A40B120680068C005F1
:1010D00001D5C4F840A00320BDE8F88F216809F0CD
:1010E000FE0008612B46284920460A9A00F016F9AE
:1010F000F0BB20684169806900902A4620460A9921
:1011000000F0A2F940B1206C04283AD120680168AF
:1011100041F40071016034E0FEB2B8F1010F09D072
:101120002168380A08612A4620460A9900F08CF99D
:101130000028E8D1206806612A4620460A9900F076
:1011400083F90028DFD12068016841F480710160D3
:1011500000950022594620460A9B00F097F8002887
:10116000B3D1216809F0FF0040F00100086100E000
:1011700007E02B46044920460A9A00F0CFF80028E1
:10118000AAD00120A8E70000020001002DE9F843E1
:10119000044600680D46DDE9089701689846164642
:1011A00041F4807101604B4600224FF0011120464E
:1011B000009700F06BF848B120680068C00502D5C0
:1011C0004FF4007020640320BDE8F883216805F027
:1011D000FE0008613B464A461549204600F09EF84D
:1011E00088B920684169806900903A46494620469E
:1011F00000F02AF948B1206C042804D12068016865
:1012000041F4007101600120DEE7F5B2B8F1010F91
:1012100009D02168300A08613A464946204600F064
:1012200013F90028E7D1206805610020CCE7000011
:101230000200010070B516460D4604461EE0204629
:10124000FFF70FFF08B1012070BD681C16D0FFF733
:101250004DF9801BA84200D885B920684069C04379
:1012600040070BD5002044F8300F20216173A07394
:10127000216941F0200121612073E4E72068406981
:10128000C0434007DBD4002070BD00002DE9F047CB
:10129000984617460D460446C1F30746DDF82090F0
:1012A0002AE000BFB8F1FF3F26D0FFF71FF9A0EBFF
:1012B0000901414502D8B8F1000F1DD12068012E67
:1012C00016D0806925EA00000004000C12D000202E
:1012D000B84211D1002044F8300F20216173A0736F
:1012E000216941F02001216120730120BDE8F087D0
:1012F0004069E7E70120EBE72068012E0AD080690A
:1013000025EA00000004000C06D00020B842C9D035
:101310000020EBE74069F3E70120F7E72DE9F0470C
:10132000984616460D4604464FF000094FF0200A35
:10133000C1F3074723E020684069C043400515D446
:101340002068016841F40071016021686FF48060D9
:101350004861C4F8309084F83DA084F83E90216C38
:1013600041F00401216484F83C9021E0701C06D017
:10137000FFF7BCF8A0EB0800B04203D816B1012F6C
:101380001FD021E02068012F15D0806925EA0000D8
:101390000004000C18D000BF44F8309F84F80DA062
:1013A00084F80E90216941F02001216184F80C90AD
:1013B0000120BDE8F087406925EA00000004000C28
:1013C000EAD12068406901E02068806925EA0000D0
:1013D0000004000CAFD1ECE72DE9F0410025904668
:1013E0000E460446202728E04069C043C0060CD4BE
:1013F00054F8301B6FF01000486144F810596777BB
:10140000A577206A2062257714E0FFF76FF8A0EB3C
:101410000800B04200D886B920684069C043400641
:101420000BD544F8305F6773A573206940F0200046
:10143000206125730120BDE8F08120684169C9431E
:101440004906D1D40020F6E770B516460D4604468D
:101450001EE02046FFF705FE08B1012070BD681CA4
:1014600016D0FFF743F8801BA84200D885B9206842
:101470004069C04300060BD5002044F8300F2021FE
:101480006173A073216941F0200121612073E4E7B9
:1014900020684069C0430006DBD4002070BD000016
:1014A0002DE9F04107461D4688461046069E01F08C
:1014B00073F80446384601F06FF8214600F052FCFC
:1014C000084F394601F080F82860404601F064F882
:1014D000214600F047FC394601F076F83060BDE85F
:1014E000F0810000E12E654238B5044600208DF8F9
:1014F000000001236A467521204600F05CF828B9F7
:101500009DF80000702803D0682801D0012038BD64
:1015100000226B21204600F058F83220FEF7DAFE58
:1015200000221921204600F050F800221A212046FE
:1015300000F04BF800221C21204600F046F8002263
:101540001B21204600F041F80A20FEF7C3FE0020D0
:1015500038BD7CB51C4615460E4606236A463B211F
:1015600000F029F800280CD1BDF8000040BA308006
:10157000BDF8020040BA2880BDF8040040BA2080BF
:1015800000207CBD7CB51C4615460E4606236A46E7
:10159000432100F010F800280CD1BDF8000040BA3B
:1015A0003080BDF8020040BA2880BDF8040040BA7F
:1015B000208000207CBD3EB564248DE81C000A46D6
:1015C0000123D021FFF75CF83EBD17B583B064243A
:1015D000012305AA8DE81C000A46D021FFF77EF9F9
:1015E00006B010BD2DE9F04786B0002437480094BE
:1015F000019402940394816941F010018161816931
:1016000001F010010491816941F02001816181693B
:1016100001F020010491816941F004018161816937
:1016200001F004010491816941F008018161806940
:10163000012200F00800DFF8988055030490294645
:101640004046FEF74EFFDFF88C9000224FF43061E9
:101650004846FEF746FF012291024846FEF741FF49
:10166000DFF874A04FF44077002239465046FEF769
:1016700038FF0095022601250396CDE901546946FD
:101680004046FEF739FE41208DE851006946484644
:10169000FEF732FE4FF47060CDE90005CDE9024659
:1016A00069464846FEF728FE28038DE83100694662
:1016B0004846FEF721FE00970396CDE9015469469E
:1016C0005046FEF719FE06B0BDE8F0870010024054
:1016D0000010014000080140000C01400D4810B509
:1016E0000B4901600C49416000214FF48042816048
:1016F000C0E9031241618161C1610162FEF7FCFE34
:10170000002803D0BDE81040FEF7E2BD10BD000088
:101710000058004038000020801A0600FEE7FEE76F
:1017200070B50821002000F0B3FA3F21012000F03D
:10173000AFFA0121022000F0ABFA0321084600F0C5
:10174000A7FA0321042000F0A3FA0221052000F0EB
:101750009FFA0E21062000F09BFA0421112000F0D0
:1017600097FA052214490A2000F0AEFA134D4FF4FF
:101770008064002221462846FEF7B3FEE12000F0F7
:1017800027FA012221462846FEF7ABFE0022214619
:101790002846FEF7A6FEE22000F01AFA01222146B2
:1017A0002846FEF79EFE7021072000F071FABDE882
:1017B0007040FEF76FBD0000332F000800080140A5
:1017C0002DE9F04742F2107505223749102000F04C
:1017D0007BFA052234490A2000F076FADFF8D0902F
:1017E0004FF48068314F0426002241464846FEF7F8
:1017F00078FEA02000F0ECF90024385D00F0E8F954
:10180000641CE4B2B442F8D30122474641464E4636
:101810004846FEF766FE4FF48074002221463046AB
:10182000FEF75FFE002000F0A3F9FF280BD020F0A8
:10183000010040F00201002000F02AFA01222146B6
:101840003046FEF74EFE00F0ADF96D1E07D0C0F336
:101850000111032905D0C10607D5022402E00424A2
:1018600000E00324FFF75CFF02E08006EBD50124D3
:101870003021072000F00CFA002239463046FEF7EE
:1018800030FEE12000F0A4F9012239463046FEF78F
:1018900028FE05490522491D0A2000F015FAFEF729
:1018A000F9FC2046BDE8F0872E2F0008000000203C
:1018B0000008014070B500240021204600F0DCF84B
:1018C0000025002000F042F96D1CEDB2802DF8D308
:1018D000641CE4B2082CEFD370BD000010B5FFF714
:1018E00081FE064C012211022046FEF7FAFD204639
:1018F0000122BDE810405102FEF7F3BD000C01408B
:101900002DE9F047164E002407464FF080084FF4AB
:101910000079B51528FA04F0384201D0012200E020
:10192000002249463046FEF7DCFD012229463046BA
:10193000FEF7D7FD002229463046FEF7D2FD641C93
:10194000E4B2082CE6D3012229463046FEF7C9FD51
:1019500029463046BDE8F0470022FEF7C2BD000030
:10196000000C014070B501220B4D5402214628465F
:10197000FEF7B7FD0122160231462846FEF7B1FDFB
:10198000002221462846FEF7ACFD31462846BDE838
:1019900070400022FEF7A5BD000C014070B50A4D55
:1019A0004FF40074002221462846FEF79AFD0122DA
:1019B00011022846FEF795FD21462846BDE87040F5
:1019C0000122FEF78EBD0000000C014010B5002082
:1019D0004FF47A720021491C9142FCD3401C904282
:1019E000F8D3FFF77BFFAE2000F09FF8D52000F082
:1019F0009CF8802000F099F8A82000F096F83F208D
:101A000000F093F8D32000F090F8002000F08DF85B
:101A1000402000F08AF8A12000F087F8C82000F0EC
:101A200084F8DA2000F081F8122000F07EF881209E
:101A300000F07BF8CF2000F078F8D92000F075F89E
:101A4000F12000F072F8DB2000F06FF8302000F099
:101A50006CF8A42000F069F8A62000F066F88D204C
:101A600000F063F8142000F060F8AF2000F05DF89B
:101A7000BDE81040FFF71EBF10B50C4640F0B000A7
:101A800000F053F8102040EA141000F04EF804F073
:101A90000F00BDE8104000F048B800002DE9F0410B
:101AA0000746CE004000083E801E15464FF0FF3826
:101AB000F1B2C0B2FFF7E0FF1148002400EB0515BA
:101AC0002819A0F5805090F8000E00F03FF8641C33
:101AD000E4B2082CF4D308EB4700F1B2C0B2FFF730
:101AE000CBFF00242819A0F5805090F8080E00F0D4
:101AF0002DF8641CE4B2082CF4D3BDE8F08100009A
:101B00003E2900082DE9F04115460E4607460024FF
:101B100006E03019C1B23846FFF7C0FF641CE4B2DA
:101B20002A5D002AF5D1BDE8F08110B50446FFF723
:101B300019FF7820FFF7E4FE0020FFF7E1FE2046C2
:101B4000FFF7DEFEBDE81040FFF728BF10B50446E2
:101B5000FFF708FF7820FFF7D3FE4020FFF7D0FE05
:101B60002046FFF7CDFEBDE81040FFF717BF7047D6
:101B700070B50B4E04464FF480650022294630466E
:101B8000FEF7AFFC204600F023F8FF2000F020F81D
:101B90000446012229463046FEF7A3FC204670BDCC
:101BA0000008014070B5094E4FF4806500222946B7
:101BB0003046FEF796FCFF2000F00AF804460122AA
:101BC00029463046FEF78DFC204670BD00080140D6
:101BD0002DE9F047134E002504464FF400684FF4FA
:101BE00080597715E20941463046FEF77AFC6006D7
:101BF000040E012239463046FEF773FC4946304652
:101C0000FEF76AFC012801D144F0010400223946A4
:101C10003046FEF766FC6D1CEDB2082DE2D320467F
:101C2000BDE8F087000801407047FEF71FBF30B5E0
:101C30008FB028216846FEF7C7FA14210AA8FEF7DC
:101C4000C3FA01210804CDE9001000240294022502
:101C50000491CDE907504FF4E01009906846FFF772
:101C60005BF808B172B6FEE70F20CDE90A054FF424
:101C70008060CDE90C4002210AA80E94FEF780FF97
:101C8000002801D072B6FEE70FB030BD7047FEE706
:101C90002DE9F0410B4E0F4604464FF480650022BB
:101CA00029463046FEF71DFC44F02000FFF790FF68
:101CB0003846FFF78DFF29463046BDE8F041012246
:101CC000FEF70FBC000801402DE9F041DFF83C8031
:101CD00015460E4604464FF48067002239464046BA
:101CE000FEF7FFFB44F02000FFF772FF002404E042
:101CF000305DFFF76DFF641CE4B2AC42F8D33946A7
:101D00004046BDE8F0410122FEF7EBBB0008014070
:101D10004100080218BF04200A0E18BF40F001005D
:101D20004FF07F4232EA010108BF40F00200012873
:101D300008BF052070470907090E002804DB00F1E1
:101D4000E02080F80014704700F00F0000F1E02060
:101D500080F8141D704700F0F5BA6FF05E010807B7
:101D600000F0AFBD2DE9F0474FF0684202EB4003B1
:101D70000C460546B3F1654F3CBF02EB4102B2F1A0
:101D8000654F7CD2C0F3C753C1F3C7529A1A1B2ABE
:101D900006DD10F0004F14BF76487748BDE8F087A5
:101DA00012F11A0F17DA11F0004F06D010F0004FA1
:101DB0000CBF72487248BDE8F0872146284600F003
:101DC00029FB0446FFF7A4FF042808BFFFF7C5FF5F
:101DD0002046BDE8F0874200B2EB410F25D910F054
:101DE000004F19BF674F684E684F694E224685F015
:101DF000004415460A4680F0004110460A1A520077
:101E0000B2F1807F40D248406249DFF88CA110F0E7
:101E1000004F18D04FF03F48384600F0ABFC074663
:101E20005146304600F0A6FC17E011F0004F04BF09
:101E300000263746E2D010F0004F19BF574F584EDA
:101E4000584F594EDAE74FF07C58384600F07AFA8E
:101E500007465146304600F075FA06464146284688
:101E600000F0B2FB214600F06DFA82462146404662
:101E700000F0AAFB294600F073FC514600E037E071
:101E800000F0C8FA044604E02146284600F0C2FAF1
:101E90000446014600F098FB8046444900F094FB5C
:101EA000434900F04FFA414600F08EFB414900F0F3
:101EB00049FA414600F088FB3F4900F043FA4146A9
:101EC00000F082FB3D4900F03DFA054641462046C0
:101ED00000F07AFB294600F077FB314600F032FA39
:101EE000214600F02FFA3946BDE8F04700F02ABA43
:101EF0004FF07F42B2EB400F28BFB2EB410F03D24D
:101F0000BDE8F047FFF727BF40EA01035B0008BFC9
:101F100044F0FF410AD0B2EB400F08BFB2EB410FD3
:101F200006D125F0804024F0804105460C4629E783
:101F3000B2EB400F12BF5FEA410245F0FF4004F0F0
:101F400000413FF41FAF4A0092EA40033FF51AAF49
:101F5000002AACBF4FF09F464FF03E56314600F08E
:101F600033FB05463146204600F02EFB044628464A
:101F7000214607E7DB0FC9BFDB0FC93FDB0F494035
:101F8000DB0F49C00000C9BF22AAFDB90000C93F4C
:101F900022AAFD390060ED3EC30ACE37000049C0D9
:101FA00022AA7DBA0000494022AA7D3A2DAD65BD26
:101FB0008FB8D53D0FB511BE61C84C3EA8AAAABEC8
:101FC0008AB0FEF75BFDFFF732FEFFF70BFBFFF772
:101FD00085FBFFF7FBFCFFF7A3FBFFF76BFC012181
:101FE000B3A20846FFF78EFDB4A201210320FFF73C
:101FF00089FDB6A201210420FFF784FDB548FFF753
:1020000073FA50B10121B4A20846FFF77BFDB6A2D6
:1020100001210220FFF776FDFEE7B74F00220821DD
:102020003846FEF75EFADFF8D4A2DFF8D4B2B54C3A
:10203000DFF8D4924FF00308002600BFADF810601F
:10204000FEF754FAE168401A1028F7D3FEF74EFA6B
:10205000E06001213846FEF73FFAE178884202D07D
:10206000E070266133E02169491C216103292ED3E8
:10207000C4F81080A178884229D0A070012826D108
:10208000207860B10020207058B1FFF713FC9FA2A8
:1020900005210220FFF736FD6670667117E001200A
:1020A000F1E7FFF707FC012181A20846FFF72AFDAF
:1020B00082A201210320FFF725FD84A20121042033
:1020C000FFF720FD002208213846FEF70AFA4021DA
:1020D0003846FEF701FAE179884202D0E071A66144
:1020E00011E0A169491CA16103290CD3C4F818802F
:1020F000A179884207D0A071012804D1FEF7F6F932
:1021000000F5C870E0616089401C80B260812028C1
:1021100014D36681207810B1FF20607012E0012195
:1021200063A20846FFF7EEFC64A201210320FFF73B
:10213000E9FC66A201210420FFF7E4FC20780028D6
:102140003FF47CAF03AB02AA01A96248FFF701FA92
:10215000F0B120780028F3D06671002208213846BB
:10216000FEF7BFF920780028EAD0207A401CC0B2E0
:1021700020720228FFF462AF2672A5204D4689F82E
:102180000000FEF7B3F9E169401A73D5072283E036
:1021900006A8009005ABBDF90C20BDF90810BDF9EB
:1021A0000400FFF77DF904AB08AA07A94948FFF727
:1021B000E9F9BDF91000002543F22C3188420EDD0B
:1021C000207938B9FEF792F96169401A02D40120EA
:1021D000207102E0207901281BD105252AE043F275
:1021E0002C31C84220790DDA30B9FEF77FF96169E8
:1021F000401A01D4FF20207194F90400401C08D13A
:10220000062517E028B12671FEF770F900F57A70FF
:102210006061059A524501DD01250BE05A4501D95F
:10222000022507E0069A524501DD032502E05A45E2
:1022300000D904256078854222D06570072D1AD216
:10224000DFE805F0190406080A0C120031A206E0C6
:1022500032A204E033A202E034A200E035A205215C
:102260000220FFF74FFC0DE034A205210220FFF70A
:1022700049FC0EE00FE025A205210220FFF742FCF9
:10228000062D06D0002208213846FEF72AF965718E
:1022900068E70122F7E762796A70607AA870411CEA
:1022A0006172297811440844E870FFF789FAC5E69D
:1022B00053454E534F52204F4646000050726573AF
:1022C00073206B657920746F000000007374617275
:1022D00074000000380000204D5055363530302055
:1022E0004552524F52000000436865636B20776986
:1022F00072652F4144302000000801400000A041D9
:102300000000A0C1080000200000002053544F50DE
:102310002020200046524F4E542020004241434B83
:10232000202020004C454654202020005249474898
:1023300054202000524F54204C202000524F542053
:102340005220200090EA010F48BF81F0004100F1C7
:102350001882421A3CBF801A89184FEAD0524FF0B7
:102360007F4C1CEA410FA2EBD15318BF9CEA026FCD
:1023700000F03B804FF0004C4CEA00204CEA012179
:1023800021FA03FC10EB0C0C1ED202F1FF325FEAC3
:102390001C2040EBC25038BF70471CF07F0F4FEA43
:1023A000400C18BFBCF17F4F38BF7047C3F120030A
:1023B000994008BF20F00100BCF17F4F38BF704743
:1023C000A0F1C04000F0C7B94FEA3C00000A40EB62
:1023D000C25028BF1CF0FF0F4FEA400CE6D018BFD8
:1023E000BCF17F4F38BF7047EAE79CEA026F05D027
:1023F00010EA5C0F08BF00F00040704710B500F015
:1024000064F900BF64FBBE3E014800F028BA00BF7B
:102410000000C07F4FF47F0C1CEAD0121EBF1CEAE4
:10242000D11392EA0C0F93EA0C0F00F0858090EA2A
:10243000010F48BF42F4807240F4000C41F40000E8
:102440002CF07F4120F07F4000B58142A2EB0302D7
:102450000FF2081CACEB504EC0F100009EF800E0FB
:102460004FEA4E0E00FB0EFC38BF49004FEA2C1C11
:1024700002F5FA020CFB0EF34FEACE1E4FEA112CC6
:102480004FEAC1210EEB635E42EB22420EFB0CFCD5
:102490004FEA1C5300FB03114FEA112C4FEA0131A4
:1024A0000EFB0CFC4FEADC4C00FB0C11C14228BFB8
:1024B00009184CEB03335DF804EB10EB410143EBDF
:1024C000C250B2F57C0F38BF704729D512F0F00F1B
:1024D0001CBF00F1C04000F00040704700818283C3
:1024E0008485868788898B8C8D8E8F919293959623
:1024F00097999A9C9D9FA0A2A3A5A7A8AAACAEB0AD
:10250000B2B3B5B7B9BCBEC0C2C5C7C9CCCED1D4B1
:10251000D7D9DCDFE2E6E9ECF0F3F7FAFE000000E1
:102520004FEA400C0CF1807CBCF17E4F28BF704715
:10253000B0F1C04000F00FB990EA010F0CEAD113DE
:1025400048BF42F48072624538BF634507D213F436
:102550007F0F16D080EA010000F00040704710B5F0
:1025600000F0B3F8097EFC3E00F005B880EA0100F7
:1025700000F00040704780EA010000F0004000F0E9
:10258000EAB812F47F0F04BF0248704780EA0100E6
:1025900000F0E1B80000C07F10F0004148BF4042A9
:1025A000B0FA80F310FA03F2C3F19D030BD051EAA5
:1025B000C35101EB1220530638BF704700F10100F0
:1025C00008BF20F0010070474FF47F0C1CEAD012C6
:1025D0001EBF1CEAD11392EA0C0F93EA0C0F00F015
:1025E000478090EA010F48BF42F480724FF0004CE0
:1025F0004CEA00204CEA012102EB0302A0FB01138C
:10260000A2F50002002918BF43F001035B0028BFB8
:102610004FEA330342EB22425FEA132C4CEBC250E9
:102620002EBFBCEB436FB2F57C0F70474FEA036CD3
:10263000BCF1004F08BF20F00100B2F57C0F38BF9D
:1026400070470BD582F0FF0212F5803FC8BF70477C
:1026500000F1C040D8BF00F00040704700F5000C0A
:102660005FEA4C0C48BF7047B0F1C04000F073B84F
:1026700090EA010F0CEAD11348BF42F48072624520
:1026800038BF634504D280EA010000F00040704783
:1026900010B500F01AF800BF8900013E00F007B83D
:1026A00000F009B85FEA410C5FEA1C6C08D080EAD0
:1026B000010000F050B85FEA400C5FEA1C6CF6D1F4
:1026C0004FF00040A0F5800070470EF1020E2EF092
:1026D000030E5EF8044B244204D44FEA4102B2F1E7
:1026E0007F4F11D84FEA4003B3F17F4F0CD80ED182
:1026F0004FEAD07CB2F17F4F0CEB4C0C0CF1020C8A
:1027000008BF4CEBD17C04E04FF0080C01E04FEA2D
:10271000D17C0CEB4C0324FA03F404F00704B4F16D
:10272000040C06D20EEB840CBDE810404CF0010CFA
:102730006047DFE80CF0070802024FF00040A0F508
:10274000800010BD0846420018BFD2F1807288BFD9
:1027500000F0004010BDFF2141EAD050C005704795
:1027600080F0004090EA010F7FF5F3AD81F0004169
:1027700000F007B890EA010F48BF81F000413FF533
:10278000E8AD421A04D882F00042A0EB02001144E6
:102790004FEAD0524FF07F4C1CEA410FA2EBD153CD
:1027A00018BF9CEA026F4AD04FF0004C4CEA002060
:1027B0004CEA012121FA03FCB0EB0C0C0FD412F00F
:1027C000FE0F36D05FEA4C001DD5001240EBC25020
:1027D00038BF70471CF03F0F18BF70470BE0A2F1E5
:1027E00001025FEA1C2040EBC25038BF70471CF06A
:1027F0007F0F18BF7047C3F12003994014BF401EDC
:1028000020F00100704780084FEA122308BF70478C
:10281000B0FA80FCA2EB0C02CCF1280C60FA0CF0B0
:1028200093EA122F04BF00EBC25070474FEAC37007
:102830007047130A5FEADC1008BF7047F6E79CEAAE
:10284000026F04D010EA5C0F08BF0020704710B57B
:10285000FFF73BFF40DFF63E81F0004070470CF091
:102860000F03092B08BF082000F051800A2B0BD062
:10287000082B18BF704708BF1CF0400F0AD04FF05C
:1028800000004FF0000170471CF0400F18BF4FF0E0
:10289000004070471CF0100F08D020F0704300F08B
:1028A0007F4242EAD3014FEA4370704700F0604034
:1028B00021F07F4242EA000201F07F4040EA72705C
:1028C00070474FF0FF0212EAD0521CBF92F0FF0394
:1028D0008B42C2BFD14200EBC1507047002A0AD0E0
:1028E000002B0BD0002900F00040A4BF40F0FE40B8
:1028F00040F40000704700F00040704743024FF082
:102900000B0C18BF4CF0806C7FF47EAD70471CF44C
:10291000801F11D01CF4E02F03D06FEACC314900A6
:1029200070474FF04050EFF3008222F0704242EACD
:10293000000282F3008870474FF0000070470000EB
:102940000000000000000000000000000000000087
:1029500000F800000000000000333000000000100C
:102960000C06100C0600000000000000000040C033
:102970007840C0784000043F04043F040400007025
:1029800088FC08300000001820FF211E0000F0081D
:10299000F000E018000000211C031E211E0000F0C2
:1029A0000888700000001E2123241927211010160A
:1029B0000E00000000000000000000000000000009
:1029C00000E0180402000000000718204000000288
:1029D0000418E000000000402018070000004040FC
:1029E00080F0804040000202010F0102020000005E
:1029F00000F0000000000101011F010101000000C2
:102A000000000000000080B0700000000000000026
:102A100000000000000000010101010101010000AF
:102A20000000000000000030300000000000000046
:102A3000000080601804006018060100000000E03B
:102A400010080810E000000F102020100F000010E8
:102A500010F8000000000020203F2020000000703F
:102A60000808088870000030282422213000003037
:102A70000888884830000018202020110E0000002F
:102A8000C02010F8000000070424243F240000F8B0
:102A90000888880808000019212020110E0000E095
:102AA000108888180000000F112020110E00003837
:102AB0000808C83808000000003F0000000000704F
:102AC000880808887000001C222121221C0000E0D8
:102AD00010080810E0000000312222110F00000051
:102AE00000C0C00000000000003030000000000006
:102AF0000080000000000000806000000000000076
:102B0000804020100800000102040810200040400E
:102B10004040404040000404040404040400000851
:102B20001020408000000020100804020100007006
:102B300048080808F0000000003036010000C030EE
:102B4000C828E810E0000718272423140B00000011
:102B5000C038E0000000203C23020227382008F89B
:102B6000888888700000203F202020110E00C0308F
:102B7000080808083800071820202010080008F866
:102B800008080810E000203F202020100F0008F85F
:102B90008888E8081000203F20202320180008F82B
:102BA0008888E8081000203F200003000000C030A3
:102BB00008080838000007182020221E020008F824
:102BC00008000008F808203F210101213F200008EB
:102BD00008F8080800000020203F20200000000026
:102BE0000808F8080800C08080807F00000008F80E
:102BF00088C028180800203F20012638200008F847
:102C0000080000000000203F20202020300008F8AD
:102C1000F800F8F80800203F003F003F200008F8C7
:102C200030C00008F808203F200007183F00E010DF
:102C300008080810E0000F10202020100F0008F8EE
:102C400008080808F000203F210101010000E01001
:102C500008080810E0000F18242438504F0008F826
:102C6000888888887000203F2000030C3020007086
:102C70008808080838000038202121221C00180884
:102C800008F8080818000000203F2000000008F89D
:102C900008000008F808001F202020201F000878E6
:102CA000880000C83808000007380E010000F80846
:102CB00000F80008F800033C0700073C0300081870
:102CC00068808068180820302C03032C30200838D6
:102CD000C800C83808000000203F2000000010088D
:102CE0000808C838080020382621202018000000D5
:102CF00000FE020202000000007F40404000000C85
:102D000030C000000000000000010638C0000002D2
:102D10000202FE000000004040407F000000000072
:102D20000402020204000000000000000000000095
:102D30000000000000008080808080808080000291
:102D4000020400000000000000000000000000007D
:102D50008080808000000019242222223F2008F871
:102D6000008080000000003F112020110E000000B4
:102D7000008080800000000E112020201100000043
:102D800000808088F800000E112020103F200000F5
:102D9000808080800000001F2222222213000080F9
:102DA00080F0888888180020203F20200000000044
:102DB000808080808000006B94949493600008F879
:102DC000008080800000203F210000203F20008004
:102DD0009898000000000020203F20200000000004
:102DE00000809898000000C08080807F000008F874
:102DF000000080808000203F24022D302000000849
:102E000008F8000000000020203F20200000808003
:102E1000808080808000203F20003F20003F808015
:102E2000008080800000203F210000203F20000023
:102E3000808080800000001F202020201F008080D4
:102E400000808000000080FFA12020110E00000003
:102E5000008080808000000E112020A0FF808080F4
:102E600080008080800020203F21200001000000A1
:102E70008080808080000033242424241900008076
:102E800080E0808000000000001F20200000808083
:102E9000000000808000001F202020103F20808044
:102EA00080000080808000010E30080601008080D4
:102EB0000080008080800F300C030C300F000080F9
:102EC0008000808080000020312E0E312000808024
:102ED00080000080808080818E7018060100008054
:102EE0008080808080000021302C22213000000072
:102EF0000000807C020200000000003F4040000013
:102F00000000FF00000000000000FF0000000002C1
:102F1000027C800000000040403F000000000006EE
:102F20000101020204040000000000000000112260
:102F300033445511223344550102020304050607A8
:102F400008090A0B0C0D0E0F101000000000000005
:102F50000000010203040607080900000000010246
:102F600003040000842F0008000000203800000047
:102F700028010008BC2F000838000020B806000017
:102F800044010008000000000000000000000000F4
:102F90000000000000000000000000000000000031
:102FA0000000000000000000000000000100000020
:0C2FB000100000000000000000127A0079
:04000005080000ED02
:00000001FF
